{"abi":[{"type":"constructor","inputs":[],"stateMutability":"nonpayable"},{"type":"function","name":"getPrice","inputs":[{"name":"token","type":"address","internalType":"address"}],"outputs":[{"name":"","type":"uint256","internalType":"uint256"}],"stateMutability":"view"},{"type":"function","name":"latestRoundData","inputs":[{"name":"token","type":"address","internalType":"address"}],"outputs":[{"name":"roundId","type":"uint80","internalType":"uint80"},{"name":"answer","type":"int256","internalType":"int256"},{"name":"startedAt","type":"uint256","internalType":"uint256"},{"name":"updatedAt","type":"uint256","internalType":"uint256"},{"name":"answeredInRound","type":"uint80","internalType":"uint80"}],"stateMutability":"view"},{"type":"function","name":"prices","inputs":[{"name":"","type":"address","internalType":"address"}],"outputs":[{"name":"","type":"uint256","internalType":"uint256"}],"stateMutability":"view"},{"type":"function","name":"setPrice","inputs":[{"name":"token","type":"address","internalType":"address"},{"name":"price","type":"uint256","internalType":"uint256"}],"outputs":[],"stateMutability":"nonpayable"}],"bytecode":{"object":"0x6080604052348015600e575f5ffd5b50643a352944005f5f5f73ffffffffffffffffffffffffffffffffffffffff1673ffffffffffffffffffffffffffffffffffffffff1681526020019081526020015f20819055506103db806100625f395ff3fe608060405234801561000f575f5ffd5b5060043610610049575f3560e01c8062e4768b1461004d57806341976e0914610069578063a13cc76a14610099578063cfed246b146100cd575b5f5ffd5b61006760048036038101906100629190610287565b6100fd565b005b610083600480360381019061007e91906102c5565b610142565b60405161009091906102ff565b60405180910390f35b6100b360048036038101906100ae91906102c5565b610187565b6040516100c4959493929190610354565b60405180910390f35b6100e760048036038101906100e291906102c5565b6101e2565b6040516100f491906102ff565b60405180910390f35b805f5f8473ffffffffffffffffffffffffffffffffffffffff1673ffffffffffffffffffffffffffffffffffffffff1681526020019081526020015f20819055505050565b5f5f5f8373ffffffffffffffffffffffffffffffffffffffff1673ffffffffffffffffffffffffffffffffffffffff1681526020019081526020015f20549050919050565b5f5f5f5f5f60015f5f8873ffffffffffffffffffffffffffffffffffffffff1673ffffffffffffffffffffffffffffffffffffffff1681526020019081526020015f2054424260019450945094509450945091939590929450565b5f602052805f5260405f205f915090505481565b5f5ffd5b5f73ffffffffffffffffffffffffffffffffffffffff82169050919050565b5f610223826101fa565b9050919050565b61023381610219565b811461023d575f5ffd5b50565b5f8135905061024e8161022a565b92915050565b5f819050919050565b61026681610254565b8114610270575f5ffd5b50565b5f813590506102818161025d565b92915050565b5f5f6040838503121561029d5761029c6101f6565b5b5f6102aa85828601610240565b92505060206102bb85828601610273565b9150509250929050565b5f602082840312156102da576102d96101f6565b5b5f6102e784828501610240565b91505092915050565b6102f981610254565b82525050565b5f6020820190506103125f8301846102f0565b92915050565b5f69ffffffffffffffffffff82169050919050565b61033681610318565b82525050565b5f819050919050565b61034e8161033c565b82525050565b5f60a0820190506103675f83018861032d565b6103746020830187610345565b61038160408301866102f0565b61038e60608301856102f0565b61039b608083018461032d565b969550505050505056fea2646970667358221220eebe3bc99bd32428aa32316a0044cf9dcfce5552a828086455e89356969ccb3a64736f6c63430008210033","linkReferences":{}},"methodIdentifiers":{"getPrice(address)":"41976e09","latestRoundData(address)":"a13cc76a","prices(address)":"cfed246b","setPrice(address,uint256)":"00e4768b"},"id":25}