{"abi":[{"type":"constructor","inputs":[{"name":"_asset","type":"address","internalType":"address"}],"stateMutability":"nonpayable"},{"type":"function","name":"asset","inputs":[],"outputs":[{"name":"","type":"address","internalType":"contract IERC20"}],"stateMutability":"view"},{"type":"function","name":"balances","inputs":[{"name":"","type":"address","internalType":"address"}],"outputs":[{"name":"","type":"uint256","internalType":"uint256"}],"stateMutability":"view"},{"type":"function","name":"deposit","inputs":[{"name":"amount","type":"uint256","internalType":"uint256"}],"outputs":[],"stateMutability":"nonpayable"},{"type":"function","name":"withdraw","inputs":[{"name":"amount","type":"uint256","internalType":"uint256"}],"outputs":[],"stateMutability":"nonpayable"},{"type":"event","name":"Deposit","inputs":[{"name":"user","type":"address","indexed":true,"internalType":"address"},{"name":"amount","type":"uint256","indexed":false,"internalType":"uint256"}],"anonymous":false},{"type":"event","name":"Withdraw","inputs":[{"name":"user","type":"address","indexed":true,"internalType":"address"},{"name":"amount","type":"uint256","indexed":false,"internalType":"uint256"}],"anonymous":false}],"bytecode":{"object":"0x60a060405234801561000f575f5ffd5b50604051610798380380610798833981810160405281019061003191906100c9565b8073ffffffffffffffffffffffffffffffffffffffff1660808173ffffffffffffffffffffffffffffffffffffffff1681525050506100f4565b5f5ffd5b5f73ffffffffffffffffffffffffffffffffffffffff82169050919050565b5f6100988261006f565b9050919050565b6100a88161008e565b81146100b2575f5ffd5b50565b5f815190506100c38161009f565b92915050565b5f602082840312156100de576100dd61006b565b5b5f6100eb848285016100b5565b91505092915050565b60805161067e61011a5f395f818161013c0152818161022b015261024f015261067e5ff3fe608060405234801561000f575f5ffd5b506004361061004a575f3560e01c806327e235e31461004e5780632e1a7d4d1461007e57806338d52e0f1461009a578063b6b55f25146100b8575b5f5ffd5b610068600480360381019061006391906103ec565b6100d4565b604051610075919061042f565b60405180910390f35b61009860048036038101906100939190610472565b6100e8565b005b6100a2610229565b6040516100af91906104f8565b60405180910390f35b6100d260048036038101906100cd9190610472565b61024d565b005b5f602052805f5260405f205f915090505481565b805f5f3373ffffffffffffffffffffffffffffffffffffffff1673ffffffffffffffffffffffffffffffffffffffff1681526020019081526020015f205f828254610133919061053e565b925050819055507f000000000000000000000000000000000000000000000000000000000000000073ffffffffffffffffffffffffffffffffffffffff166323b872dd3033846040518463ffffffff1660e01b815260040161019793929190610580565b6020604051808303815f875af11580156101b3573d5f5f3e3d5ffd5b505050506040513d601f19601f820116820180604052508101906101d791906105ea565b503373ffffffffffffffffffffffffffffffffffffffff167f884edad9ce6fa2440d8a54cc123490eb96d2768479d49ff9c7366125a94243648260405161021e919061042f565b60405180910390a250565b7f000000000000000000000000000000000000000000000000000000000000000081565b7f000000000000000000000000000000000000000000000000000000000000000073ffffffffffffffffffffffffffffffffffffffff166323b872dd3330846040518463ffffffff1660e01b81526004016102aa93929190610580565b6020604051808303815f875af11580156102c6573d5f5f3e3d5ffd5b505050506040513d601f19601f820116820180604052508101906102ea91906105ea565b50805f5f3373ffffffffffffffffffffffffffffffffffffffff1673ffffffffffffffffffffffffffffffffffffffff1681526020019081526020015f205f8282546103369190610615565b925050819055503373ffffffffffffffffffffffffffffffffffffffff167fe1fffcc4923d04b559f4d29a8bfc6cda04eb5b0d3c460751c2402c5c5cc9109c82604051610383919061042f565b60405180910390a250565b5f5ffd5b5f73ffffffffffffffffffffffffffffffffffffffff82169050919050565b5f6103bb82610392565b9050919050565b6103cb816103b1565b81146103d5575f5ffd5b50565b5f813590506103e6816103c2565b92915050565b5f602082840312156104015761040061038e565b5b5f61040e848285016103d8565b91505092915050565b5f819050919050565b61042981610417565b82525050565b5f6020820190506104425f830184610420565b92915050565b61045181610417565b811461045b575f5ffd5b50565b5f8135905061046c81610448565b92915050565b5f602082840312156104875761048661038e565b5b5f6104948482850161045e565b91505092915050565b5f819050919050565b5f6104c06104bb6104b684610392565b61049d565b610392565b9050919050565b5f6104d1826104a6565b9050919050565b5f6104e2826104c7565b9050919050565b6104f2816104d8565b82525050565b5f60208201905061050b5f8301846104e9565b92915050565b7f4e487b71000000000000000000000000000000000000000000000000000000005f52601160045260245ffd5b5f61054882610417565b915061055383610417565b925082820390508181111561056b5761056a610511565b5b92915050565b61057a816103b1565b82525050565b5f6060820190506105935f830186610571565b6105a06020830185610571565b6105ad6040830184610420565b949350505050565b5f8115159050919050565b6105c9816105b5565b81146105d3575f5ffd5b50565b5f815190506105e4816105c0565b92915050565b5f602082840312156105ff576105fe61038e565b5b5f61060c848285016105d6565b91505092915050565b5f61061f82610417565b915061062a83610417565b925082820190508082111561064257610641610511565b5b9291505056fea2646970667358221220e8c16a99d5dc271883cd3f26a43c352487a0b72c7169fb55a4726b47647c16a764736f6c63430008210033","linkReferences":{}},"methodIdentifiers":{"asset()":"38d52e0f","balances(address)":"27e235e3","deposit(uint256)":"b6b55f25","withdraw(uint256)":"2e1a7d4d"},"id":24}