{"abi":[{"type":"constructor","inputs":[{"name":"_priceOracle","type":"address","internalType":"address"}],"stateMutability":"nonpayable"},{"type":"receive","stateMutability":"payable"},{"type":"function","name":"addBatchToAllowlist","inputs":[{"name":"contracts","type":"address[]","internalType":"address[]"}],"outputs":[],"stateMutability":"nonpayable"},{"type":"function","name":"addToAllowlist","inputs":[{"name":"contractAddress","type":"address","internalType":"address"},{"name":"selectors","type":"bytes4[]","internalType":"bytes4[]"}],"outputs":[],"stateMutability":"nonpayable"},{"type":"function","name":"allowedContracts","inputs":[{"name":"","type":"address","internalType":"address"}],"outputs":[{"name":"","type":"bool","internalType":"bool"}],"stateMutability":"view"},{"type":"function","name":"allowedFunctions","inputs":[{"name":"","type":"address","internalType":"address"},{"name":"","type":"bytes4","internalType":"bytes4"}],"outputs":[{"name":"","type":"bool","internalType":"bool"}],"stateMutability":"view"},{"type":"function","name":"allowlistSize","inputs":[],"outputs":[{"name":"","type":"uint256","internalType":"uint256"}],"stateMutability":"view"},{"type":"function","name":"dailySpent","inputs":[{"name":"","type":"uint256","internalType":"uint256"}],"outputs":[{"name":"","type":"uint256","internalType":"uint256"}],"stateMutability":"view"},{"type":"function","name":"execute","inputs":[{"name":"target","type":"address","internalType":"address"},{"name":"value","type":"uint256","internalType":"uint256"},{"name":"data","type":"bytes","internalType":"bytes"}],"outputs":[{"name":"","type":"bytes","internalType":"bytes"}],"stateMutability":"nonpayable"},{"type":"function","name":"getCurrentSpending","inputs":[],"outputs":[{"name":"daily","type":"uint256","internalType":"uint256"},{"name":"weekly","type":"uint256","internalType":"uint256"},{"name":"monthly","type":"uint256","internalType":"uint256"}],"stateMutability":"view"},{"type":"function","name":"limits","inputs":[],"outputs":[{"name":"dailyLimit","type":"uint256","internalType":"uint256"},{"name":"weeklyLimit","type":"uint256","internalType":"uint256"},{"name":"monthlyLimit","type":"uint256","internalType":"uint256"}],"stateMutability":"view"},{"type":"function","name":"monthlySpent","inputs":[{"name":"","type":"uint256","internalType":"uint256"}],"outputs":[{"name":"","type":"uint256","internalType":"uint256"}],"stateMutability":"view"},{"type":"function","name":"owner","inputs":[],"outputs":[{"name":"","type":"address","internalType":"address"}],"stateMutability":"view"},{"type":"function","name":"priceOracle","inputs":[],"outputs":[{"name":"","type":"address","internalType":"contract IPriceOracle"}],"stateMutability":"view"},{"type":"function","name":"removeFromAllowlist","inputs":[{"name":"contractAddress","type":"address","internalType":"address"}],"outputs":[],"stateMutability":"nonpayable"},{"type":"function","name":"updateLimits","inputs":[{"name":"daily","type":"uint256","internalType":"uint256"},{"name":"weekly","type":"uint256","internalType":"uint256"},{"name":"monthly","type":"uint256","internalType":"uint256"}],"outputs":[],"stateMutability":"nonpayable"},{"type":"function","name":"weeklySpent","inputs":[{"name":"","type":"uint256","internalType":"uint256"}],"outputs":[{"name":"","type":"uint256","internalType":"uint256"}],"stateMutability":"view"},{"type":"event","name":"ContractAllowlisted","inputs":[{"name":"contractAddress","type":"address","indexed":true,"internalType":"address"},{"name":"selectors","type":"bytes4[]","indexed":false,"internalType":"bytes4[]"}],"anonymous":false},{"type":"event","name":"ContractRemoved","inputs":[{"name":"contractAddress","type":"address","indexed":true,"internalType":"address"}],"anonymous":false},{"type":"event","name":"SpendingLimitUpdated","inputs":[{"name":"dailyLimit","type":"uint256","indexed":false,"internalType":"uint256"},{"name":"weeklyLimit","type":"uint256","indexed":false,"internalType":"uint256"},{"name":"monthlyLimit","type":"uint256","indexed":false,"internalType":"uint256"}],"anonymous":false},{"type":"event","name":"TransactionExecuted","inputs":[{"name":"target","type":"address","indexed":true,"internalType":"address"},{"name":"usdValue","type":"uint256","indexed":false,"internalType":"uint256"}],"anonymous":false},{"type":"error","name":"ContractNotAllowlisted","inputs":[{"name":"target","type":"address","internalType":"address"}]},{"type":"error","name":"DailyLimitExceeded","inputs":[{"name":"spent","type":"uint256","internalType":"uint256"},{"name":"limit","type":"uint256","internalType":"uint256"}]},{"type":"error","name":"ExecutionFailed","inputs":[]},{"type":"error","name":"FunctionNotAllowlisted","inputs":[{"name":"target","type":"address","internalType":"address"},{"name":"selector","type":"bytes4","internalType":"bytes4"}]},{"type":"error","name":"MonthlyLimitExceeded","inputs":[{"name":"spent","type":"uint256","internalType":"uint256"},{"name":"limit","type":"uint256","internalType":"uint256"}]},{"type":"error","name":"NotOwner","inputs":[]},{"type":"error","name":"WeeklyLimitExceeded","inputs":[{"name":"spent","type":"uint256","internalType":"uint256"},{"name":"limit","type":"uint256","internalType":"uint256"}]}],"bytecode":{"object":"0x608060405234801561000f575f5ffd5b50604051611d7b380380611d7b8339818101604052810190610031919061016d565b335f5f6101000a81548173ffffffffffffffffffffffffffffffffffffffff021916908373ffffffffffffffffffffffffffffffffffffffff16021790555080600a5f6101000a81548173ffffffffffffffffffffffffffffffffffffffff021916908373ffffffffffffffffffffffffffffffffffffffff1602179055506040518060600160405280683635c9adc5dea00000815260200169010f0cf064dd59200000815260200169043c33c193756480000081525060045f820151815f0155602082015181600101556040820151816002015590505050610198565b5f5ffd5b5f73ffffffffffffffffffffffffffffffffffffffff82169050919050565b5f61013c82610113565b9050919050565b61014c81610132565b8114610156575f5ffd5b50565b5f8151905061016781610143565b92915050565b5f602082840312156101825761018161010f565b5b5f61018f84828501610159565b91505092915050565b611bd6806101a55f395ff3fe6080604052600436106100eb575f3560e01c806351e0e26b116100895780638da5cb5b116100585780638da5cb5b14610308578063b61d27f614610332578063d2ae21041461036e578063ecc3530c14610398576100f2565b806351e0e26b1461023c5780635381a363146102785780635da93d7e146102b4578063860aefcf146102dc576100f2565b80632630c12f116100c55780632630c12f1461018657806336a0f8a5146101b0578063387b9436146101d8578063519cecce14610214576100f2565b80630378c281146100f65780630d3d6b051461011e5780632293d3fb1461015a576100f2565b366100f257005b5f5ffd5b348015610101575f5ffd5b5061011c600480360381019061011791906112a3565b6103d4565b005b348015610129575f5ffd5b50610144600480360381019061013f9190611333565b61060c565b604051610151919061136d565b60405180910390f35b348015610165575f5ffd5b5061016e610621565b60405161017d93929190611386565b60405180910390f35b348015610191575f5ffd5b5061019a61069e565b6040516101a79190611416565b60405180910390f35b3480156101bb575f5ffd5b506101d660048036038101906101d1919061142f565b6106c3565b005b3480156101e3575f5ffd5b506101fe60048036038101906101f99190611333565b6107a5565b60405161020b919061136d565b60405180910390f35b34801561021f575f5ffd5b5061023a600480360381019061023591906114d4565b6107ba565b005b348015610247575f5ffd5b50610262600480360381019061025d919061151f565b6108f3565b60405161026f9190611564565b60405180910390f35b348015610283575f5ffd5b5061029e600480360381019061029991906115d2565b610910565b6040516102ab9190611564565b60405180910390f35b3480156102bf575f5ffd5b506102da60048036038101906102d5919061151f565b61093a565b005b3480156102e7575f5ffd5b506102f0610a70565b6040516102ff93929190611386565b60405180910390f35b348015610313575f5ffd5b5061031c610a87565b604051610329919061161f565b60405180910390f35b34801561033d575f5ffd5b506103586004803603810190610353919061168d565b610aab565b604051610365919061176e565b60405180910390f35b348015610379575f5ffd5b50610382610c5f565b60405161038f919061136d565b60405180910390f35b3480156103a3575f5ffd5b506103be60048036038101906103b99190611333565b610c65565b6040516103cb919061136d565b60405180910390f35b5f5f9054906101000a900473ffffffffffffffffffffffffffffffffffffffff1673ffffffffffffffffffffffffffffffffffffffff163373ffffffffffffffffffffffffffffffffffffffff1614610459576040517f30cd747100000000000000000000000000000000000000000000000000000000815260040160405180910390fd5b6001805f8573ffffffffffffffffffffffffffffffffffffffff1673ffffffffffffffffffffffffffffffffffffffff1681526020019081526020015f205f6101000a81548160ff02191690831515021790555060035f8154809291906104bf906117bb565b91905055505f8282905011156105b7575f5f90505b828290508110156105b557600160025f8673ffffffffffffffffffffffffffffffffffffffff1673ffffffffffffffffffffffffffffffffffffffff1681526020019081526020015f205f85858581811061053257610531611802565b5b9050602002016020810190610547919061182f565b7bffffffffffffffffffffffffffffffffffffffffffffffffffffffff19167bffffffffffffffffffffffffffffffffffffffffffffffffffffffff191681526020019081526020015f205f6101000a81548160ff02191690831515021790555080806001019150506104d4565b505b8273ffffffffffffffffffffffffffffffffffffffff167fa92970cd48c904083afae4ad9966f31f9a1064cb9ef9aff4495a8c0cb6dfc88383836040516105ff929190611916565b60405180910390a2505050565b6009602052805f5260405f205f915090505481565b5f5f5f5f62015180426106349190611965565b90505f62093a80426106469190611965565b90505f62278d00426106589190611965565b905060075f8481526020019081526020015f205460085f8481526020019081526020015f205460095f8481526020019081526020015f2054955095509550505050909192565b600a5f9054906101000a900473ffffffffffffffffffffffffffffffffffffffff1681565b5f5f9054906101000a900473ffffffffffffffffffffffffffffffffffffffff1673ffffffffffffffffffffffffffffffffffffffff163373ffffffffffffffffffffffffffffffffffffffff1614610748576040517f30cd747100000000000000000000000000000000000000000000000000000000815260040160405180910390fd5b8260045f018190555081600460010181905550806004600201819055507f9f6713b318fb993a401bb0dd3abf7bf332cb8c35a330ee62f77b424565be967683838360405161079893929190611386565b60405180910390a1505050565b6007602052805f5260405f205f915090505481565b5f5f9054906101000a900473ffffffffffffffffffffffffffffffffffffffff1673ffffffffffffffffffffffffffffffffffffffff163373ffffffffffffffffffffffffffffffffffffffff161461083f576040517f30cd747100000000000000000000000000000000000000000000000000000000815260040160405180910390fd5b5f5f90505b828290508110156108ee576001805f85858581811061086657610865611802565b5b905060200201602081019061087b919061151f565b73ffffffffffffffffffffffffffffffffffffffff1673ffffffffffffffffffffffffffffffffffffffff1681526020019081526020015f205f6101000a81548160ff02191690831515021790555060035f8154809291906108dc906117bb565b91905055508080600101915050610844565b505050565b6001602052805f5260405f205f915054906101000a900460ff1681565b6002602052815f5260405f20602052805f5260405f205f915091509054906101000a900460ff1681565b5f5f9054906101000a900473ffffffffffffffffffffffffffffffffffffffff1673ffffffffffffffffffffffffffffffffffffffff163373ffffffffffffffffffffffffffffffffffffffff16146109bf576040517f30cd747100000000000000000000000000000000000000000000000000000000815260040160405180910390fd5b5f60015f8373ffffffffffffffffffffffffffffffffffffffff1673ffffffffffffffffffffffffffffffffffffffff1681526020019081526020015f205f6101000a81548160ff02191690831515021790555060035f815480929190610a2590611995565b91905055508073ffffffffffffffffffffffffffffffffffffffff167f8d30d41865a0b811b9545d879520d2dde9f4cc49e4241f486ad9752bc904b56560405160405180910390a250565b6004805f0154908060010154908060020154905083565b5f5f9054906101000a900473ffffffffffffffffffffffffffffffffffffffff1681565b60605f5f9054906101000a900473ffffffffffffffffffffffffffffffffffffffff1673ffffffffffffffffffffffffffffffffffffffff163373ffffffffffffffffffffffffffffffffffffffff1614610b32576040517f30cd747100000000000000000000000000000000000000000000000000000000815260040160405180910390fd5b610b3d858484610c7a565b5f610b4a86868686610d38565b9050610b5581610f9f565b5f5f8773ffffffffffffffffffffffffffffffffffffffff16878787604051610b7f9291906119f8565b5f6040518083038185875af1925050503d805f8114610bb9576040519150601f19603f3d011682016040523d82523d5f602084013e610bbe565b606091505b509150915081610bfa576040517facfdb44400000000000000000000000000000000000000000000000000000000815260040160405180910390fd5b610c038361112f565b8773ffffffffffffffffffffffffffffffffffffffff167f4e86ad0da28cbaaaa7e93e36c43b32696e970535225b316f1b84fbf30bdc04e884604051610c49919061136d565b60405180910390a2809350505050949350505050565b60035481565b6008602052805f5260405f205f915090505481565b60015f8473ffffffffffffffffffffffffffffffffffffffff1673ffffffffffffffffffffffffffffffffffffffff1681526020019081526020015f205f9054906101000a900460ff16610d0557826040517f41d16991000000000000000000000000000000000000000000000000000000008152600401610cfc919061161f565b60405180910390fd5b60048282905010610d33575f82825f90600492610d2493929190611a18565b90610d2f9190611a68565b9050505b505050565b5f5f841115610e00575f600a5f9054906101000a900473ffffffffffffffffffffffffffffffffffffffff1673ffffffffffffffffffffffffffffffffffffffff166341976e095f6040518263ffffffff1660e01b8152600401610d9c919061161f565b602060405180830381865afa158015610db7573d5f5f3e3d5ffd5b505050506040513d601f19601f82011682018060405250810190610ddb9190611ada565b90506305f5e1008186610dee9190611b05565b610df89190611965565b915050610f97565b60448383905010610f93575f83835f90600492610e1f93929190611a18565b90610e2a9190611a68565b905063095ea7b360e01b7bffffffffffffffffffffffffffffffffffffffffffffffffffffffff1916817bffffffffffffffffffffffffffffffffffffffffffffffffffffffff19161480610ec3575063a9059cbb60e01b7bffffffffffffffffffffffffffffffffffffffffffffffffffffffff1916817bffffffffffffffffffffffffffffffffffffffffffffffffffffffff1916145b15610f91575f602485013590505f600a5f9054906101000a900473ffffffffffffffffffffffffffffffffffffffff1673ffffffffffffffffffffffffffffffffffffffff166341976e09896040518263ffffffff1660e01b8152600401610f2b919061161f565b602060405180830381865afa158015610f46573d5f5f3e3d5ffd5b505050506040513d601f19601f82011682018060405250810190610f6a9190611ada565b90506305f5e1008183610f7d9190611b05565b610f879190611965565b9350505050610f97565b505b5f90505b949350505050565b5f6201518042610faf9190611965565b90505f62093a8042610fc19190611965565b90505f62278d0042610fd39190611965565b90505f8460075f8681526020019081526020015f2054610ff39190611b46565b905060045f0154811115611044578060045f01546040517fef664d6a00000000000000000000000000000000000000000000000000000000815260040161103b929190611b79565b60405180910390fd5b5f8560085f8681526020019081526020015f20546110629190611b46565b90506004600101548111156110b557806004600101546040517fb2e089be0000000000000000000000000000000000000000000000000000000081526004016110ac929190611b79565b60405180910390fd5b5f8660095f8681526020019081526020015f20546110d39190611b46565b905060046002015481111561112657806004600201546040517fdbaa733b00000000000000000000000000000000000000000000000000000000815260040161111d929190611b79565b60405180910390fd5b50505050505050565b5f620151804261113f9190611965565b90505f62093a80426111519190611965565b90505f62278d00426111639190611965565b90508360075f8581526020019081526020015f205f8282546111859190611b46565b925050819055508360085f8481526020019081526020015f205f8282546111ac9190611b46565b925050819055508360095f8381526020019081526020015f205f8282546111d39190611b46565b9250508190555050505050565b5f5ffd5b5f5ffd5b5f73ffffffffffffffffffffffffffffffffffffffff82169050919050565b5f611211826111e8565b9050919050565b61122181611207565b811461122b575f5ffd5b50565b5f8135905061123c81611218565b92915050565b5f5ffd5b5f5ffd5b5f5ffd5b5f5f83601f84011261126357611262611242565b5b8235905067ffffffffffffffff8111156112805761127f611246565b5b60208301915083602082028301111561129c5761129b61124a565b5b9250929050565b5f5f5f604084860312156112ba576112b96111e0565b5b5f6112c78682870161122e565b935050602084013567ffffffffffffffff8111156112e8576112e76111e4565b5b6112f48682870161124e565b92509250509250925092565b5f819050919050565b61131281611300565b811461131c575f5ffd5b50565b5f8135905061132d81611309565b92915050565b5f60208284031215611348576113476111e0565b5b5f6113558482850161131f565b91505092915050565b61136781611300565b82525050565b5f6020820190506113805f83018461135e565b92915050565b5f6060820190506113995f83018661135e565b6113a6602083018561135e565b6113b3604083018461135e565b949350505050565b5f819050919050565b5f6113de6113d96113d4846111e8565b6113bb565b6111e8565b9050919050565b5f6113ef826113c4565b9050919050565b5f611400826113e5565b9050919050565b611410816113f6565b82525050565b5f6020820190506114295f830184611407565b92915050565b5f5f5f60608486031215611446576114456111e0565b5b5f6114538682870161131f565b93505060206114648682870161131f565b92505060406114758682870161131f565b9150509250925092565b5f5f83601f84011261149457611493611242565b5b8235905067ffffffffffffffff8111156114b1576114b0611246565b5b6020830191508360208202830111156114cd576114cc61124a565b5b9250929050565b5f5f602083850312156114ea576114e96111e0565b5b5f83013567ffffffffffffffff811115611507576115066111e4565b5b6115138582860161147f565b92509250509250929050565b5f60208284031215611534576115336111e0565b5b5f6115418482850161122e565b91505092915050565b5f8115159050919050565b61155e8161154a565b82525050565b5f6020820190506115775f830184611555565b92915050565b5f7fffffffff0000000000000000000000000000000000000000000000000000000082169050919050565b6115b18161157d565b81146115bb575f5ffd5b50565b5f813590506115cc816115a8565b92915050565b5f5f604083850312156115e8576115e76111e0565b5b5f6115f58582860161122e565b9250506020611606858286016115be565b9150509250929050565b61161981611207565b82525050565b5f6020820190506116325f830184611610565b92915050565b5f5f83601f84011261164d5761164c611242565b5b8235905067ffffffffffffffff81111561166a57611669611246565b5b6020830191508360018202830111156116865761168561124a565b5b9250929050565b5f5f5f5f606085870312156116a5576116a46111e0565b5b5f6116b28782880161122e565b94505060206116c38782880161131f565b935050604085013567ffffffffffffffff8111156116e4576116e36111e4565b5b6116f087828801611638565b925092505092959194509250565b5f81519050919050565b5f82825260208201905092915050565b8281835e5f83830152505050565b5f601f19601f8301169050919050565b5f611740826116fe565b61174a8185611708565b935061175a818560208601611718565b61176381611726565b840191505092915050565b5f6020820190508181035f8301526117868184611736565b905092915050565b7f4e487b71000000000000000000000000000000000000000000000000000000005f52601160045260245ffd5b5f6117c582611300565b91507fffffffffffffffffffffffffffffffffffffffffffffffffffffffffffffffff82036117f7576117f661178e565b5b600182019050919050565b7f4e487b71000000000000000000000000000000000000000000000000000000005f52603260045260245ffd5b5f60208284031215611844576118436111e0565b5b5f611851848285016115be565b91505092915050565b5f82825260208201905092915050565b5f819050919050565b61187c8161157d565b82525050565b5f61188d8383611873565b60208301905092915050565b5f6118a760208401846115be565b905092915050565b5f602082019050919050565b5f6118c6838561185a565b93506118d18261186a565b805f5b85811015611909576118e68284611899565b6118f08882611882565b97506118fb836118af565b9250506001810190506118d4565b5085925050509392505050565b5f6020820190508181035f83015261192f8184866118bb565b90509392505050565b7f4e487b71000000000000000000000000000000000000000000000000000000005f52601260045260245ffd5b5f61196f82611300565b915061197a83611300565b92508261198a57611989611938565b5b828204905092915050565b5f61199f82611300565b91505f82036119b1576119b061178e565b5b600182039050919050565b5f81905092915050565b828183375f83830152505050565b5f6119df83856119bc565b93506119ec8385846119c6565b82840190509392505050565b5f611a048284866119d4565b91508190509392505050565b5f5ffd5b5f5ffd5b5f5f85851115611a2b57611a2a611a10565b5b83861115611a3c57611a3b611a14565b5b6001850283019150848603905094509492505050565b5f82905092915050565b5f82821b905092915050565b5f611a738383611a52565b82611a7e813561157d565b92506004821015611abe57611ab97fffffffff0000000000000000000000000000000000000000000000000000000083600403600802611a5c565b831692505b505092915050565b5f81519050611ad481611309565b92915050565b5f60208284031215611aef57611aee6111e0565b5b5f611afc84828501611ac6565b91505092915050565b5f611b0f82611300565b9150611b1a83611300565b9250828202611b2881611300565b91508282048414831517611b3f57611b3e61178e565b5b5092915050565b5f611b5082611300565b9150611b5b83611300565b9250828201905080821115611b7357611b7261178e565b5b92915050565b5f604082019050611b8c5f83018561135e565b611b99602083018461135e565b939250505056fea26469706673582212206e936b56ffa5a26d32222bb011dc969b8a8d6b9adfb6da228a487f39a00fd56564736f6c63430008210033","linkReferences":{}},"methodIdentifiers":{"addBatchToAllowlist(address[])":"519cecce","addToAllowlist(address,bytes4[])":"0378c281","allowedContracts(address)":"51e0e26b","allowedFunctions(address,bytes4)":"5381a363","allowlistSize()":"d2ae2104","dailySpent(uint256)":"387b9436","execute(address,uint256,bytes)":"b61d27f6","getCurrentSpending()":"2293d3fb","limits()":"860aefcf","monthlySpent(uint256)":"0d3d6b05","owner()":"8da5cb5b","priceOracle()":"2630c12f","removeFromAllowlist(address)":"5da93d7e","updateLimits(uint256,uint256,uint256)":"36a0f8a5","weeklySpent(uint256)":"ecc3530c"},"id":22}